{
  "_format": "hh-sol-artifact-1",
  "contractName": "BitSavePayments",
  "sourceName": "contracts/BitSavePayments.sol",
  "abi": [
    {
      "inputs": [
        {
          "internalType": "address",
          "name": "_musdToken",
          "type": "address"
        },
        {
          "internalType": "address",
          "name": "_registry",
          "type": "address"
        }
      ],
      "stateMutability": "nonpayable",
      "type": "constructor"
    },
    {
      "inputs": [],
      "name": "ReentrancyGuardReentrantCall",
      "type": "error"
    },
    {
      "anonymous": false,
      "inputs": [
        {
          "indexed": true,
          "internalType": "uint256",
          "name": "paymentId",
          "type": "uint256"
        },
        {
          "indexed": true,
          "internalType": "address",
          "name": "from",
          "type": "address"
        },
        {
          "indexed": true,
          "internalType": "address",
          "name": "to",
          "type": "address"
        },
        {
          "indexed": false,
          "internalType": "uint256",
          "name": "amount",
          "type": "uint256"
        },
        {
          "indexed": false,
          "internalType": "enum BitSavePayments.PaymentType",
          "name": "paymentType",
          "type": "uint8"
        },
        {
          "indexed": false,
          "internalType": "string",
          "name": "note",
          "type": "string"
        }
      ],
      "name": "PaymentSent",
      "type": "event"
    },
    {
      "inputs": [
        {
          "internalType": "uint256",
          "name": "paymentId",
          "type": "uint256"
        }
      ],
      "name": "getPayment",
      "outputs": [
        {
          "components": [
            {
              "internalType": "address",
              "name": "from",
              "type": "address"
            },
            {
              "internalType": "address",
              "name": "to",
              "type": "address"
            },
            {
              "internalType": "uint256",
              "name": "amount",
              "type": "uint256"
            },
            {
              "internalType": "string",
              "name": "note",
              "type": "string"
            },
            {
              "internalType": "uint256",
              "name": "timestamp",
              "type": "uint256"
            },
            {
              "internalType": "enum BitSavePayments.PaymentType",
              "name": "paymentType",
              "type": "uint8"
            }
          ],
          "internalType": "struct BitSavePayments.Payment",
          "name": "payment",
          "type": "tuple"
        }
      ],
      "stateMutability": "view",
      "type": "function"
    },
    {
      "inputs": [
        {
          "internalType": "uint256",
          "name": "count",
          "type": "uint256"
        }
      ],
      "name": "getRecentPayments",
      "outputs": [
        {
          "internalType": "uint256[]",
          "name": "recentPayments",
          "type": "uint256[]"
        }
      ],
      "stateMutability": "view",
      "type": "function"
    },
    {
      "inputs": [],
      "name": "getTotalPayments",
      "outputs": [
        {
          "internalType": "uint256",
          "name": "count",
          "type": "uint256"
        }
      ],
      "stateMutability": "view",
      "type": "function"
    },
    {
      "inputs": [
        {
          "internalType": "address",
          "name": "user",
          "type": "address"
        }
      ],
      "name": "getUserPayments",
      "outputs": [
        {
          "internalType": "uint256[]",
          "name": "paymentIds",
          "type": "uint256[]"
        }
      ],
      "stateMutability": "view",
      "type": "function"
    },
    {
      "inputs": [],
      "name": "musdToken",
      "outputs": [
        {
          "internalType": "contract IERC20",
          "name": "",
          "type": "address"
        }
      ],
      "stateMutability": "view",
      "type": "function"
    },
    {
      "inputs": [
        {
          "internalType": "uint256",
          "name": "",
          "type": "uint256"
        }
      ],
      "name": "payments",
      "outputs": [
        {
          "internalType": "address",
          "name": "from",
          "type": "address"
        },
        {
          "internalType": "address",
          "name": "to",
          "type": "address"
        },
        {
          "internalType": "uint256",
          "name": "amount",
          "type": "uint256"
        },
        {
          "internalType": "string",
          "name": "note",
          "type": "string"
        },
        {
          "internalType": "uint256",
          "name": "timestamp",
          "type": "uint256"
        },
        {
          "internalType": "enum BitSavePayments.PaymentType",
          "name": "paymentType",
          "type": "uint8"
        }
      ],
      "stateMutability": "view",
      "type": "function"
    },
    {
      "inputs": [
        {
          "internalType": "uint256",
          "name": "amount",
          "type": "uint256"
        },
        {
          "internalType": "enum BitSavePayments.PaymentType",
          "name": "purchaseType",
          "type": "uint8"
        },
        {
          "internalType": "string",
          "name": "details",
          "type": "string"
        }
      ],
      "name": "recordPurchase",
      "outputs": [
        {
          "internalType": "uint256",
          "name": "paymentId",
          "type": "uint256"
        }
      ],
      "stateMutability": "nonpayable",
      "type": "function"
    },
    {
      "inputs": [],
      "name": "registry",
      "outputs": [
        {
          "internalType": "contract IBitSaveRegistry",
          "name": "",
          "type": "address"
        }
      ],
      "stateMutability": "view",
      "type": "function"
    },
    {
      "inputs": [
        {
          "internalType": "address",
          "name": "recipient",
          "type": "address"
        },
        {
          "internalType": "uint256",
          "name": "amount",
          "type": "uint256"
        },
        {
          "internalType": "string",
          "name": "note",
          "type": "string"
        }
      ],
      "name": "sendToAddress",
      "outputs": [
        {
          "internalType": "uint256",
          "name": "paymentId",
          "type": "uint256"
        }
      ],
      "stateMutability": "nonpayable",
      "type": "function"
    },
    {
      "inputs": [
        {
          "internalType": "string",
          "name": "username",
          "type": "string"
        },
        {
          "internalType": "uint256",
          "name": "amount",
          "type": "uint256"
        },
        {
          "internalType": "string",
          "name": "note",
          "type": "string"
        }
      ],
      "name": "sendToUsername",
      "outputs": [
        {
          "internalType": "uint256",
          "name": "paymentId",
          "type": "uint256"
        }
      ],
      "stateMutability": "nonpayable",
      "type": "function"
    },
    {
      "inputs": [
        {
          "internalType": "address",
          "name": "",
          "type": "address"
        },
        {
          "internalType": "uint256",
          "name": "",
          "type": "uint256"
        }
      ],
      "name": "userPayments",
      "outputs": [
        {
          "internalType": "uint256",
          "name": "",
          "type": "uint256"
        }
      ],
      "stateMutability": "view",
      "type": "function"
    }
  ],
  "bytecode": "0x60c060405234801561001057600080fd5b506040516114b63803806114b683398101604081905261002f91610118565b60016000556001600160a01b03821661008f5760405162461bcd60e51b815260206004820152601460248201527f496e76616c6964204d555344206164647265737300000000000000000000000060448201526064015b60405180910390fd5b6001600160a01b0381166100e55760405162461bcd60e51b815260206004820152601860248201527f496e76616c6964207265676973747279206164647265737300000000000000006044820152606401610086565b6001600160a01b039182166080521660a05261014b565b80516001600160a01b038116811461011357600080fd5b919050565b6000806040838503121561012b57600080fd5b610134836100fc565b9150610142602084016100fc565b90509250929050565b60805160a05161133161018560003960008181610125015261091001526000818161019c015281816104650152610ab901526113316000f3fe608060405234801561001057600080fd5b50600436106100a95760003560e01c806387d817891161007157806387d817891461015f5780638cfeab35146101845780639d78d46b146101975780639d7dadeb146101be578063c18ebbe3146101d1578063fca402e6146101e457600080fd5b80633280a836146100ae5780633378cdaf146100d757806358a55a4e146100f8578063708f29a6146101185780637b10399914610120575b600080fd5b6100c16100bc366004610d27565b6101f7565b6040516100ce9190610dbe565b60405180910390f35b6100ea6100e5366004610e77565b6103a8565b6040519081526020016100ce565b61010b610106366004610d27565b6106c0565b6040516100ce9190610ed7565b6001546100ea565b6101477f000000000000000000000000000000000000000000000000000000000000000081565b6040516001600160a01b0390911681526020016100ce565b61017261016d366004610d27565b61076b565b6040516100ce96959493929190610f1a565b6100ea610192366004610f85565b61084f565b6101477f000000000000000000000000000000000000000000000000000000000000000081565b61010b6101cc366004610fb1565b610880565b6100ea6101df366004610fd5565b6108ec565b6100ea6101f2366004611054565b6109ae565b61022c6040805160c081018252600080825260208201819052918101829052606080820152608081018290529060a082015290565b60015482106102775760405162461bcd60e51b8152602060048201526012602482015271125b9d985b1a59081c185e5b595b9d08125160721b60448201526064015b60405180910390fd5b6001828154811061028a5761028a611098565b60009182526020918290206040805160c081018252600690930290910180546001600160a01b039081168452600182015416938301939093526002830154908201526003820180549192916060840191906102e4906110ae565b80601f0160208091040260200160405190810160405280929190818152602001828054610310906110ae565b801561035d5780601f106103325761010080835404028352916020019161035d565b820191906000526020600020905b81548152906001019060200180831161034057829003601f168201915b505050918352505060048201546020820152600582015460409091019060ff16600381111561038e5761038e610d86565b600381111561039f5761039f610d86565b90525092915050565b60006103b26109d2565b60018460038111156103c6576103c6610d86565b14806103e3575060028460038111156103e1576103e1610d86565b145b806103ff575060038460038111156103fd576103fd610d86565b145b6104435760405162461bcd60e51b8152602060048201526015602482015274496e76616c6964207075726368617365207479706560581b604482015260640161026e565b6040516323b872dd60e01b8152336004820152306024820152604481018690527f00000000000000000000000000000000000000000000000000000000000000006001600160a01b0316906323b872dd906064016020604051808303816000875af11580156104b6573d6000803e3d6000fd5b505050506040513d601f19601f820116820180604052508101906104da91906110e8565b6105185760405162461bcd60e51b815260206004820152600f60248201526e151c985b9cd9995c8819985a5b1959608a1b604482015260640161026e565b600180549050905060016040518060c00160405280336001600160a01b03168152602001306001600160a01b0316815260200187815260200185858080601f0160208091040260200160405190810160405280939291908181526020018383808284376000920191909152505050908252504260208201526040018660038111156105a5576105a5610d86565b90528154600181810184556000938452602093849020835160069093020180546001600160a01b039384166001600160a01b031991821617825594840151918101805492909316919094161790556040810151600283015560608101519091906003820190610614908261116f565b506080820151600482015560a082015160058201805460ff1916600183600381111561064257610642610d86565b021790555050336000818152600260209081526040808320805460018101825590845291909220018490555130925083907f8724c27764b59137a3c69341b6444bfcf7c33792b60f53a13bbfa2b7e1de86e9906106a6908a908a908a908a90611257565b60405180910390a46106b86001600055565b949350505050565b60015460609060008184116106d557836106d7565b815b90508067ffffffffffffffff8111156106f2576106f261110a565b60405190808252806020026020018201604052801561071b578160200160208202803683370190505b50925060005b818110156107635780610734838561129e565b61073e91906112b7565b84828151811061075057610750611098565b6020908102919091010152600101610721565b505050919050565b6001818154811061077b57600080fd5b600091825260209091206006909102018054600182015460028301546003840180546001600160a01b0394851696509290931693909290916107bc906110ae565b80601f01602080910402602001604051908101604052809291908181526020018280546107e8906110ae565b80156108355780601f1061080a57610100808354040283529160200191610835565b820191906000526020600020905b81548152906001019060200180831161081857829003601f168201915b50505050600483015460059093015491929160ff16905086565b6002602052816000526040600020818154811061086b57600080fd5b90600052602060002001600091509150505481565b6001600160a01b0381166000908152600260209081526040918290208054835181840281018401909452808452606093928301828280156108e057602002820191906000526020600020905b8154815260200190600101908083116108cc575b50505050509050919050565b60006108f66109d2565b604051631f47faf560e21b81526000906001600160a01b037f00000000000000000000000000000000000000000000000000000000000000001690637d1febd490610947908a908a906004016112ca565b602060405180830381865afa158015610964573d6000803e3d6000fd5b505050506040513d601f19601f8201168201806040525081019061098891906112de565b90506109988186868660006109fc565b9150506109a56001600055565b95945050505050565b60006109b86109d2565b6109c68585858560006109fc565b90506106b86001600055565b6002600054036109f557604051633ee5aeb560e01b815260040160405180910390fd5b6002600055565b60006001600160a01b038616610a485760405162461bcd60e51b8152602060048201526011602482015270125b9d985b1a59081c9958da5c1a595b9d607a1b604482015260640161026e565b60008511610a8d5760405162461bcd60e51b81526020600482015260126024820152710416d6f756e74206d757374206265203e20360741b604482015260640161026e565b6040516323b872dd60e01b81523360048201526001600160a01b038781166024830152604482018790527f000000000000000000000000000000000000000000000000000000000000000016906323b872dd906064016020604051808303816000875af1158015610b02573d6000803e3d6000fd5b505050506040513d601f19601f82011682018060405250810190610b2691906110e8565b610b645760405162461bcd60e51b815260206004820152600f60248201526e151c985b9cd9995c8819985a5b1959608a1b604482015260640161026e565b600180549050905060016040518060c00160405280336001600160a01b03168152602001886001600160a01b0316815260200187815260200186868080601f016020809104026020016040519081016040528093929190818152602001838380828437600092019190915250505090825250426020820152604001846003811115610bf157610bf1610d86565b90528154600181810184556000938452602093849020835160069093020180546001600160a01b039384166001600160a01b031991821617825594840151918101805492909316919094161790556040810151600283015560608101519091906003820190610c60908261116f565b506080820151600482015560a082015160058201805460ff19166001836003811115610c8e57610c8e610d86565b021790555050336000818152600260209081526040808320805460018181018355918552838520018790556001600160a01b038c1680855282852080549283018155855292909320909201859055905190925083907f8724c27764b59137a3c69341b6444bfcf7c33792b60f53a13bbfa2b7e1de86e990610d16908a9088908b908b90611257565b60405180910390a495945050505050565b600060208284031215610d3957600080fd5b5035919050565b6000815180845260005b81811015610d6657602081850181015186830182015201610d4a565b506000602082860101526020601f19601f83011685010191505092915050565b634e487b7160e01b600052602160045260246000fd5b60048110610dba57634e487b7160e01b600052602160045260246000fd5b9052565b6020815260018060a01b03825116602082015260018060a01b036020830151166040820152604082015160608201526000606083015160c06080840152610e0860e0840182610d40565b9050608084015160a084015260a0840151610e2660c0850182610d9c565b509392505050565b60008083601f840112610e4057600080fd5b50813567ffffffffffffffff811115610e5857600080fd5b602083019150836020828501011115610e7057600080fd5b9250929050565b60008060008060608587031215610e8d57600080fd5b84359350602085013560048110610ea357600080fd5b9250604085013567ffffffffffffffff811115610ebf57600080fd5b610ecb87828801610e2e565b95989497509550505050565b602080825282518282018190526000918401906040840190835b81811015610f0f578351835260209384019390920191600101610ef1565b509095945050505050565b6001600160a01b038781168252861660208201526040810185905260c060608201819052600090610f4d90830186610d40565b9050836080830152610f6260a0830184610d9c565b979650505050505050565b6001600160a01b0381168114610f8257600080fd5b50565b60008060408385031215610f9857600080fd5b8235610fa381610f6d565b946020939093013593505050565b600060208284031215610fc357600080fd5b8135610fce81610f6d565b9392505050565b600080600080600060608688031215610fed57600080fd5b853567ffffffffffffffff81111561100457600080fd5b61101088828901610e2e565b90965094505060208601359250604086013567ffffffffffffffff81111561103757600080fd5b61104388828901610e2e565b969995985093965092949392505050565b6000806000806060858703121561106a57600080fd5b843561107581610f6d565b935060208501359250604085013567ffffffffffffffff811115610ebf57600080fd5b634e487b7160e01b600052603260045260246000fd5b600181811c908216806110c257607f821691505b6020821081036110e257634e487b7160e01b600052602260045260246000fd5b50919050565b6000602082840312156110fa57600080fd5b81518015158114610fce57600080fd5b634e487b7160e01b600052604160045260246000fd5b601f82111561116a57806000526020600020601f840160051c810160208510156111475750805b601f840160051c820191505b818110156111675760008155600101611153565b50505b505050565b815167ffffffffffffffff8111156111895761118961110a565b61119d8161119784546110ae565b84611120565b6020601f8211600181146111d157600083156111b95750848201515b600019600385901b1c1916600184901b178455611167565b600084815260208120601f198516915b8281101561120157878501518255602094850194600190920191016111e1565b508482101561121f5786840151600019600387901b60f8161c191681555b50505050600190811b01905550565b81835281816020850137506000828201602090810191909152601f909101601f19169091010190565b8481526112676020820185610d9c565b60606040820152600061127e60608301848661122e565b9695505050505050565b634e487b7160e01b600052601160045260246000fd5b818103818111156112b1576112b1611288565b92915050565b808201808211156112b1576112b1611288565b6020815260006106b860208301848661122e565b6000602082840312156112f057600080fd5b8151610fce81610f6d56fea2646970667358221220f57e00e7915b757e6a33c65f0dbfd06989fe388a4a6a869d3e0ec283bf3112c264736f6c634300081c0033",
  "linkReferences": {},
  "deployedLinkReferences": {}
}