{
  "_format": "hh-sol-artifact-1",
  "contractName": "BitSaveRegistry",
  "sourceName": "contracts/BitSaveRegistry.sol",
  "abi": [
    {
      "anonymous": false,
      "inputs": [
        {
          "indexed": true,
          "internalType": "string",
          "name": "username",
          "type": "string"
        },
        {
          "indexed": true,
          "internalType": "address",
          "name": "userAddress",
          "type": "address"
        }
      ],
      "name": "UsernameRegistered",
      "type": "event"
    },
    {
      "anonymous": false,
      "inputs": [
        {
          "indexed": false,
          "internalType": "string",
          "name": "oldUsername",
          "type": "string"
        },
        {
          "indexed": true,
          "internalType": "string",
          "name": "newUsername",
          "type": "string"
        },
        {
          "indexed": true,
          "internalType": "address",
          "name": "userAddress",
          "type": "address"
        }
      ],
      "name": "UsernameUpdated",
      "type": "event"
    },
    {
      "inputs": [
        {
          "internalType": "address",
          "name": "",
          "type": "address"
        }
      ],
      "name": "addressToUsername",
      "outputs": [
        {
          "internalType": "string",
          "name": "",
          "type": "string"
        }
      ],
      "stateMutability": "view",
      "type": "function"
    },
    {
      "inputs": [
        {
          "internalType": "address",
          "name": "userAddress",
          "type": "address"
        }
      ],
      "name": "getUsernameByAddress",
      "outputs": [
        {
          "internalType": "string",
          "name": "username",
          "type": "string"
        }
      ],
      "stateMutability": "view",
      "type": "function"
    },
    {
      "inputs": [
        {
          "internalType": "string",
          "name": "username",
          "type": "string"
        }
      ],
      "name": "isUsernameAvailable",
      "outputs": [
        {
          "internalType": "bool",
          "name": "available",
          "type": "bool"
        }
      ],
      "stateMutability": "view",
      "type": "function"
    },
    {
      "inputs": [
        {
          "internalType": "string",
          "name": "username",
          "type": "string"
        }
      ],
      "name": "registerUsername",
      "outputs": [],
      "stateMutability": "nonpayable",
      "type": "function"
    },
    {
      "inputs": [
        {
          "internalType": "string",
          "name": "username",
          "type": "string"
        }
      ],
      "name": "resolveUsername",
      "outputs": [
        {
          "internalType": "address",
          "name": "userAddress",
          "type": "address"
        }
      ],
      "stateMutability": "view",
      "type": "function"
    },
    {
      "inputs": [
        {
          "internalType": "string",
          "name": "",
          "type": "string"
        }
      ],
      "name": "usernameToAddress",
      "outputs": [
        {
          "internalType": "address",
          "name": "",
          "type": "address"
        }
      ],
      "stateMutability": "view",
      "type": "function"
    }
  ],
  "bytecode": "0x6080604052348015600f57600080fd5b5061098c8061001f6000396000f3fe608060405234801561001057600080fd5b50600436106100625760003560e01c806336a94134146100675780637d1febd41461007c578063e07a0baa146100ac578063ed1a998d146100cc578063f69c6dec146100df578063f825f14314610102575b600080fd5b61007a610075366004610617565b610136565b005b61008f61008a366004610617565b61041c565b6040516001600160a01b0390911681526020015b60405180910390f35b6100bf6100ba36600461068b565b610492565b6040516100a391906106df565b6100bf6100da36600461068b565b61052c565b6100f26100ed366004610617565b6105d8565b60405190151581526020016100a3565b61008f610110366004610728565b80516020818301810180516000825292820191909301209152546001600160a01b031681565b806101885760405162461bcd60e51b815260206004820152601860248201527f557365726e616d652063616e6e6f7420626520656d707479000000000000000060448201526064015b60405180910390fd5b60148111156101d95760405162461bcd60e51b815260206004820181905260248201527f557365726e616d6520746f6f206c6f6e6720286d617820323020636861727329604482015260640161017f565b60006001600160a01b0316600083836040516101f69291906107e1565b908152604051908190036020019020546001600160a01b0316146102555760405162461bcd60e51b81526020600482015260166024820152752ab9b2b93730b6b29030b63932b0b23c903a30b5b2b760511b604482015260640161017f565b336000908152600160205260408120805461026f906107f1565b80601f016020809104026020016040519081016040528092919081815260200182805461029b906107f1565b80156102e85780601f106102bd576101008083540402835291602001916102e8565b820191906000526020600020905b8154815290600101906020018083116102cb57829003601f168201915b5050505050905060008151111561037957600081604051610309919061082b565b90815260405190819003602001812080546001600160a01b0319169055339061033590859085906107e1565b60405180910390207f4f9b4ac20d4ba01337d029edad423886fbe524a713e2f2a469562688c4ad67ba8360405161036c91906106df565b60405180910390a36103bc565b604051339061038b90859085906107e1565b604051908190038120907f928747cd3b0fd842c3278d01d3cd835c3bb83de390e88933021fa6657be6312f90600090a35b33600084846040516103cf9291906107e1565b908152604080516020928190038301902080546001600160a01b0319166001600160a01b039490941693909317909255336000908152600190915220610416838583610896565b50505050565b600080838360405161042f9291906107e1565b908152604051908190036020019020546001600160a01b031690508061048c5760405162461bcd60e51b8152602060048201526012602482015271155cd95c9b985b59481b9bdd08199bdd5b9960721b604482015260640161017f565b92915050565b600160205260009081526040902080546104ab906107f1565b80601f01602080910402602001604051908101604052809291908181526020018280546104d7906107f1565b80156105245780601f106104f957610100808354040283529160200191610524565b820191906000526020600020905b81548152906001019060200180831161050757829003601f168201915b505050505081565b6001600160a01b0381166000908152600160205260409020805460609190610553906107f1565b80601f016020809104026020016040519081016040528092919081815260200182805461057f906107f1565b80156105cc5780601f106105a1576101008083540402835291602001916105cc565b820191906000526020600020905b8154815290600101906020018083116105af57829003601f168201915b50505050509050919050565b6000806001600160a01b0316600084846040516105f69291906107e1565b908152604051908190036020019020546001600160a01b0316149392505050565b6000806020838503121561062a57600080fd5b823567ffffffffffffffff81111561064157600080fd5b8301601f8101851361065257600080fd5b803567ffffffffffffffff81111561066957600080fd5b85602082840101111561067b57600080fd5b6020919091019590945092505050565b60006020828403121561069d57600080fd5b81356001600160a01b03811681146106b457600080fd5b9392505050565b60005b838110156106d65781810151838201526020016106be565b50506000910152565b60208152600082518060208401526106fe8160408501602087016106bb565b601f01601f19169190910160400192915050565b634e487b7160e01b600052604160045260246000fd5b60006020828403121561073a57600080fd5b813567ffffffffffffffff81111561075157600080fd5b8201601f8101841361076257600080fd5b803567ffffffffffffffff81111561077c5761077c610712565b604051601f8201601f19908116603f0116810167ffffffffffffffff811182821017156107ab576107ab610712565b6040528181528282016020018610156107c357600080fd5b81602084016020830137600091810160200191909152949350505050565b8183823760009101908152919050565b600181811c9082168061080557607f821691505b60208210810361082557634e487b7160e01b600052602260045260246000fd5b50919050565b6000825161083d8184602087016106bb565b9190910192915050565b601f82111561089157806000526020600020601f840160051c8101602085101561086e5750805b601f840160051c820191505b8181101561088e576000815560010161087a565b50505b505050565b67ffffffffffffffff8311156108ae576108ae610712565b6108c2836108bc83546107f1565b83610847565b6000601f8411600181146108f657600085156108de5750838201355b600019600387901b1c1916600186901b17835561088e565b600083815260209020601f19861690835b828110156109275786850135825560209485019460019092019101610907565b50868210156109445760001960f88860031b161c19848701351681555b505060018560011b018355505050505056fea2646970667358221220bc67588e57c03890d1837badcc931bb229dcfba0d6e626af75dfef5f68f0720664736f6c634300081c0033",
  "linkReferences": {},
  "deployedLinkReferences": {}
}