{
  "_format": "hh-sol-artifact-1",
  "contractName": "BitSaveVault",
  "sourceName": "contracts/BitSaveVault.sol",
  "abi": [
    {
      "inputs": [
        {
          "internalType": "address",
          "name": "_musdToken",
          "type": "address"
        }
      ],
      "stateMutability": "nonpayable",
      "type": "constructor"
    },
    {
      "inputs": [],
      "name": "ReentrancyGuardReentrantCall",
      "type": "error"
    },
    {
      "anonymous": false,
      "inputs": [
        {
          "indexed": true,
          "internalType": "address",
          "name": "user",
          "type": "address"
        },
        {
          "indexed": true,
          "internalType": "uint256",
          "name": "goalId",
          "type": "uint256"
        },
        {
          "indexed": false,
          "internalType": "uint256",
          "name": "amount",
          "type": "uint256"
        }
      ],
      "name": "Deposited",
      "type": "event"
    },
    {
      "anonymous": false,
      "inputs": [
        {
          "indexed": true,
          "internalType": "address",
          "name": "user",
          "type": "address"
        },
        {
          "indexed": true,
          "internalType": "uint256",
          "name": "goalId",
          "type": "uint256"
        },
        {
          "indexed": false,
          "internalType": "string",
          "name": "name",
          "type": "string"
        },
        {
          "indexed": false,
          "internalType": "uint256",
          "name": "targetAmount",
          "type": "uint256"
        },
        {
          "indexed": false,
          "internalType": "uint256",
          "name": "unlockTime",
          "type": "uint256"
        }
      ],
      "name": "GoalCreated",
      "type": "event"
    },
    {
      "anonymous": false,
      "inputs": [
        {
          "indexed": true,
          "internalType": "address",
          "name": "user",
          "type": "address"
        },
        {
          "indexed": true,
          "internalType": "uint256",
          "name": "goalId",
          "type": "uint256"
        },
        {
          "indexed": false,
          "internalType": "uint256",
          "name": "amount",
          "type": "uint256"
        }
      ],
      "name": "Withdrawn",
      "type": "event"
    },
    {
      "inputs": [
        {
          "internalType": "uint256",
          "name": "goalId",
          "type": "uint256"
        }
      ],
      "name": "closeGoal",
      "outputs": [],
      "stateMutability": "nonpayable",
      "type": "function"
    },
    {
      "inputs": [
        {
          "internalType": "string",
          "name": "name",
          "type": "string"
        },
        {
          "internalType": "uint256",
          "name": "targetAmount",
          "type": "uint256"
        },
        {
          "internalType": "uint256",
          "name": "unlockTime",
          "type": "uint256"
        }
      ],
      "name": "createGoal",
      "outputs": [
        {
          "internalType": "uint256",
          "name": "goalId",
          "type": "uint256"
        }
      ],
      "stateMutability": "nonpayable",
      "type": "function"
    },
    {
      "inputs": [
        {
          "internalType": "uint256",
          "name": "goalId",
          "type": "uint256"
        },
        {
          "internalType": "uint256",
          "name": "amount",
          "type": "uint256"
        }
      ],
      "name": "deposit",
      "outputs": [],
      "stateMutability": "nonpayable",
      "type": "function"
    },
    {
      "inputs": [
        {
          "internalType": "address",
          "name": "user",
          "type": "address"
        }
      ],
      "name": "getTotalSavings",
      "outputs": [
        {
          "internalType": "uint256",
          "name": "total",
          "type": "uint256"
        }
      ],
      "stateMutability": "view",
      "type": "function"
    },
    {
      "inputs": [
        {
          "internalType": "address",
          "name": "user",
          "type": "address"
        }
      ],
      "name": "getUserGoals",
      "outputs": [
        {
          "components": [
            {
              "internalType": "string",
              "name": "name",
              "type": "string"
            },
            {
              "internalType": "uint256",
              "name": "amount",
              "type": "uint256"
            },
            {
              "internalType": "uint256",
              "name": "targetAmount",
              "type": "uint256"
            },
            {
              "internalType": "uint256",
              "name": "unlockTime",
              "type": "uint256"
            },
            {
              "internalType": "bool",
              "name": "isActive",
              "type": "bool"
            }
          ],
          "internalType": "struct BitSaveVault.SavingsGoal[]",
          "name": "goals",
          "type": "tuple[]"
        }
      ],
      "stateMutability": "view",
      "type": "function"
    },
    {
      "inputs": [
        {
          "internalType": "address",
          "name": "",
          "type": "address"
        }
      ],
      "name": "goalCount",
      "outputs": [
        {
          "internalType": "uint256",
          "name": "",
          "type": "uint256"
        }
      ],
      "stateMutability": "view",
      "type": "function"
    },
    {
      "inputs": [],
      "name": "musdToken",
      "outputs": [
        {
          "internalType": "contract IERC20",
          "name": "",
          "type": "address"
        }
      ],
      "stateMutability": "view",
      "type": "function"
    },
    {
      "inputs": [
        {
          "internalType": "address",
          "name": "",
          "type": "address"
        },
        {
          "internalType": "uint256",
          "name": "",
          "type": "uint256"
        }
      ],
      "name": "savingsGoals",
      "outputs": [
        {
          "internalType": "string",
          "name": "name",
          "type": "string"
        },
        {
          "internalType": "uint256",
          "name": "amount",
          "type": "uint256"
        },
        {
          "internalType": "uint256",
          "name": "targetAmount",
          "type": "uint256"
        },
        {
          "internalType": "uint256",
          "name": "unlockTime",
          "type": "uint256"
        },
        {
          "internalType": "bool",
          "name": "isActive",
          "type": "bool"
        }
      ],
      "stateMutability": "view",
      "type": "function"
    },
    {
      "inputs": [
        {
          "internalType": "uint256",
          "name": "goalId",
          "type": "uint256"
        },
        {
          "internalType": "uint256",
          "name": "amount",
          "type": "uint256"
        }
      ],
      "name": "withdraw",
      "outputs": [],
      "stateMutability": "nonpayable",
      "type": "function"
    }
  ],
  "bytecode": "0x60a060405234801561001057600080fd5b5060405161122638038061122683398101604081905261002f9161009f565b60016000556001600160a01b03811661008e5760405162461bcd60e51b815260206004820152601460248201527f496e76616c6964204d5553442061646472657373000000000000000000000000604482015260640160405180910390fd5b6001600160a01b03166080526100cf565b6000602082840312156100b157600080fd5b81516001600160a01b03811681146100c857600080fd5b9392505050565b60805161112e6100f86000396000818161010b015281816107420152610a8b015261112e6000f3fe608060405234801561001057600080fd5b50600436106100935760003560e01c80639d78d46b116100665780639d78d46b14610106578063a546a31b14610145578063cfa40d6614610169578063e2bbb15814610189578063f51b71561461019c57600080fd5b8063113d22781461009857806335742c63146100be578063441a3e70146100de5780635cb65e62146100f3575b600080fd5b6100ab6100a6366004610c60565b6101af565b6040519081526020015b60405180910390f35b6100d16100cc366004610cfd565b6103c2565b6040516100b59190610d65565b6100f16100ec366004610e00565b610585565b005b6100ab610101366004610cfd565b61083c565b61012d7f000000000000000000000000000000000000000000000000000000000000000081565b6040516001600160a01b0390911681526020016100b5565b610158610153366004610e22565b6108c9565b6040516100b5959493929190610e4c565b6100ab610177366004610cfd565b60026020526000908152604090205481565b6100f1610197366004610e00565b61098e565b6100f16101aa366004610e85565b610b99565b6000836101f35760405162461bcd60e51b815260206004820152600d60248201526c13985b59481c995c5d5a5c9959609a1b60448201526064015b60405180910390fd5b600083116102385760405162461bcd60e51b81526020600482015260126024820152710546172676574206d757374206265203e20360741b60448201526064016101ea565b8115610285574282116102855760405162461bcd60e51b8152602060048201526015602482015274556e6c6f636b206d7573742062652066757475726560581b60448201526064016101ea565b503360009081526002602090815260409182902054825160c0601f88018490049093028101830190935260a0830186815290929182919088908890819085018382808284376000920182905250938552505050602080830182905260408084018890526060840187905260016080909401849052338352928152828220858352905220815181906103169082610f3d565b506020828101516001830155604080840151600280850191909155606085015160038501556080909401516004909301805460ff191693151593909317909255336000908152929052812080549161036d83611012565b919050555080336001600160a01b03167fb7904dbdcb6700a49a6914ea6cbb34cf3ca1ff25f06c6b0ea948b79076a20f45878787876040516103b2949392919061102b565b60405180910390a3949350505050565b6001600160a01b0381166000908152600260205260409020546060908067ffffffffffffffff8111156103f7576103f7610e9e565b60405190808252806020026020018201604052801561045c57816020015b6104496040518060a00160405280606081526020016000815260200160008152602001600081526020016000151581525090565b8152602001906001900390816104155790505b50915060005b8181101561057e576001600160a01b038416600090815260016020908152604080832084845290915290819020815160a081019092528054829082906104a790610eb4565b80601f01602080910402602001604051908101604052809291908181526020018280546104d390610eb4565b80156105205780601f106104f557610100808354040283529160200191610520565b820191906000526020600020905b81548152906001019060200180831161050357829003601f168201915b505050918352505060018201546020820152600282015460408201526003820154606082015260049091015460ff161515608090910152835184908390811061056b5761056b61106b565b6020908102919091010152600101610462565b5050919050565b61058d610c36565b3360009081526002602052604090205482106105bb5760405162461bcd60e51b81526004016101ea90611081565b3360009081526001602090815260408083208584529091529020600481015460ff1661061b5760405162461bcd60e51b815260206004820152600f60248201526e476f616c206e6f742061637469766560881b60448201526064016101ea565b600081600101541161065a5760405162461bcd60e51b81526020600482015260086024820152674e6f2066756e647360c01b60448201526064016101ea565b6003810154156106ac5780600301544210156106ac5760405162461bcd60e51b815260206004820152601160248201527011dbd85b081cdd1a5b1b081b1bd8dad959607a1b60448201526064016101ea565b600082156106ba57826106c0565b81600101545b9050816001015481111561070d5760405162461bcd60e51b8152602060048201526014602482015273496e73756666696369656e742062616c616e636560601b60448201526064016101ea565b8082600101600082825461072191906110aa565b909155505060405163a9059cbb60e01b8152336004820152602481018290527f00000000000000000000000000000000000000000000000000000000000000006001600160a01b03169063a9059cbb906044016020604051808303816000875af1158015610793573d6000803e3d6000fd5b505050506040513d601f19601f820116820180604052508101906107b791906110c3565b6107f55760405162461bcd60e51b815260206004820152600f60248201526e151c985b9cd9995c8819985a5b1959608a1b60448201526064016101ea565b604051818152849033907f92ccf450a286a957af52509bc1c9939d1a6a481783e142e41e2499f0bb66ebc69060200160405180910390a350506108386001600055565b5050565b6001600160a01b038116600090815260026020526040812054815b8181101561057e576001600160a01b038416600090815260016020908152604080832084845290915290206004015460ff16156108c1576001600160a01b038416600090815260016020818152604080842085855290915290912001546108be90846110e5565b92505b600101610857565b60016020908152600092835260408084209091529082529020805481906108ef90610eb4565b80601f016020809104026020016040519081016040528092919081815260200182805461091b90610eb4565b80156109685780601f1061093d57610100808354040283529160200191610968565b820191906000526020600020905b81548152906001019060200180831161094b57829003601f168201915b505050506001830154600284015460038501546004909501549394919390925060ff1685565b610996610c36565b600081116109db5760405162461bcd60e51b81526020600482015260126024820152710416d6f756e74206d757374206265203e20360741b60448201526064016101ea565b336000908152600260205260409020548210610a095760405162461bcd60e51b81526004016101ea90611081565b3360009081526001602090815260408083208584529091529020600481015460ff16610a695760405162461bcd60e51b815260206004820152600f60248201526e476f616c206e6f742061637469766560881b60448201526064016101ea565b6040516323b872dd60e01b8152336004820152306024820152604481018390527f00000000000000000000000000000000000000000000000000000000000000006001600160a01b0316906323b872dd906064016020604051808303816000875af1158015610adc573d6000803e3d6000fd5b505050506040513d601f19601f82011682018060405250810190610b0091906110c3565b610b3e5760405162461bcd60e51b815260206004820152600f60248201526e151c985b9cd9995c8819985a5b1959608a1b60448201526064016101ea565b81816001016000828254610b5291906110e5565b9091555050604051828152839033907f73a19dd210f1a7f902193214c0ee91dd35ee5b4d920cba8d519eca65a7b488ca9060200160405180910390a3506108386001600055565b336000908152600260205260409020548110610bc75760405162461bcd60e51b81526004016101ea90611081565b3360009081526001602081815260408084208585529091529091209081015415610c285760405162461bcd60e51b8152602060048201526012602482015271476f616c206d75737420626520656d70747960701b60448201526064016101ea565b600401805460ff1916905550565b600260005403610c5957604051633ee5aeb560e01b815260040160405180910390fd5b6002600055565b60008060008060608587031215610c7657600080fd5b843567ffffffffffffffff811115610c8d57600080fd5b8501601f81018713610c9e57600080fd5b803567ffffffffffffffff811115610cb557600080fd5b876020828401011115610cc757600080fd5b602091820198909750908601359560400135945092505050565b80356001600160a01b0381168114610cf857600080fd5b919050565b600060208284031215610d0f57600080fd5b610d1882610ce1565b9392505050565b6000815180845260005b81811015610d4557602081850181015186830182015201610d29565b506000602082860101526020601f19601f83011685010191505092915050565b6000602082016020835280845180835260408501915060408160051b86010192506020860160005b82811015610df457603f198786030184528151805160a08752610db360a0880182610d1f565b60208381015189820152604080850151908a0152606080850151908a0152608093840151151593909801929092525094938401939190910190600101610d8d565b50929695505050505050565b60008060408385031215610e1357600080fd5b50508035926020909101359150565b60008060408385031215610e3557600080fd5b610e3e83610ce1565b946020939093013593505050565b60a081526000610e5f60a0830188610d1f565b905085602083015284604083015283606083015282151560808301529695505050505050565b600060208284031215610e9757600080fd5b5035919050565b634e487b7160e01b600052604160045260246000fd5b600181811c90821680610ec857607f821691505b602082108103610ee857634e487b7160e01b600052602260045260246000fd5b50919050565b601f821115610f3857806000526020600020601f840160051c81016020851015610f155750805b601f840160051c820191505b81811015610f355760008155600101610f21565b50505b505050565b815167ffffffffffffffff811115610f5757610f57610e9e565b610f6b81610f658454610eb4565b84610eee565b6020601f821160018114610f9f5760008315610f875750848201515b600019600385901b1c1916600184901b178455610f35565b600084815260208120601f198516915b82811015610fcf5787850151825560209485019460019092019101610faf565b5084821015610fed5786840151600019600387901b60f8161c191681555b50505050600190811b01905550565b634e487b7160e01b600052601160045260246000fd5b60006001820161102457611024610ffc565b5060010190565b606081528360608201528385608083013760006080858301015260006080601f19601f870116830101905083602083015282604083015295945050505050565b634e487b7160e01b600052603260045260246000fd5b6020808252600f908201526e125b9d985b1a590819dbd85b081251608a1b604082015260600190565b818103818111156110bd576110bd610ffc565b92915050565b6000602082840312156110d557600080fd5b81518015158114610d1857600080fd5b808201808211156110bd576110bd610ffc56fea26469706673582212200355dce32c14503aa06f516623068d0ee4c7726fa35c5ea121e5e671f487706764736f6c634300081c0033",
  "linkReferences": {},
  "deployedLinkReferences": {}
}